{
  "transactions": [
    {
      "hash": "0x3df42f5c75d4d84a8e9dcbfd27b6b7f10832ccf7c3c6654854d7c2904e912d87",
      "transactionType": "CREATE",
      "contractName": "DevOpsTools",
      "contractAddress": "0xA5Be4E17E5F32b9bDB87999285DBa8e172d918Fe",
      "function": null,
      "arguments": null,
      "transaction": {
        "type": "0x02",
        "from": "0xe73693d0e16e421270e3cb02ea5f377b75e93e44",
        "gas": "0xd48c2",
        "data": "0x6080806040523461001c57610b2690816100228239308160080152f35b600080fdfe604060808152307f000000000000000000000000000000000000000000000000000000000000000014906004918236101561003957600080fd5b600090813560e01c806326dceeb7146101995780632aa1c696146101805780633a76846314610156578063a6066fa514610139578063d76ca83d146100e95763e374cdf11461008757600080fd5b6100e657816003193601126100e65782359067ffffffffffffffff82116100e657506100bb6020936100d59236910161027a565b6100c36102c6565b6100cb610335565b9160243590610663565b90516001600160a01b039091168152f35b80fd5b505060203660031901126100e65782359067ffffffffffffffff82116100e6575061011d610135936101229236910161027a565b6103e5565b9051918291602083526020830190610310565b0390f35b8284816003193601126101525761013590610122610335565b5080fd5b8284816003193601126101525760209051737109709ecfa91a80626ff3989d68f67f5b1dd12d8152f35b82848160031936011261015257610135906101226102c6565b506100e65760803660031901126100e65767ffffffffffffffff928035848111610206576101ca903690830161027a565b93604435818111610202576101e2903690840161027a565b926064359182116100e65750916100cb602095926100d59436910161027a565b8380fd5b8280fd5b6040810190811067ffffffffffffffff82111761022657604052565b634e487b7160e01b600052604160045260246000fd5b90601f8019910116810190811067ffffffffffffffff82111761022657604052565b67ffffffffffffffff811161022657601f01601f191660200190565b81601f820112156102c1578035906102918261025e565b9261029f604051948561023c565b828452602083830101116102c157816000926020809301838601378301015290565b600080fd5b604051906102d38261020a565b600b82526a0b8bd89c9bd85918d85cdd60aa1b6020830152565b60005b8381106103005750506000910152565b81810151838201526020016102f0565b90602091610329815180928185528580860191016102ed565b601f01601f1916010190565b604051906060820182811067ffffffffffffffff8211176102265760405260318252700cadce8bec8cae0d8def2dacadce85ce6d607b1b6040837f2e2f6c69622f666f756e6472792d6465766f70732f7372632f6765745f72656360208201520152565b60001981146103a85760010190565b634e487b7160e01b600052601160045260246000fd5b9081518110156103cf570160200190565b634e487b7160e01b600052603260045260246000fd5b906000908251825b845181101561053a57600160fd1b6001600160f81b031961040e83886103be565b5116036104235761041e90610399565b6103ed565b90919250925b8051805b6104f5575b506001600160f81b031993601760f91b8561044d83856103be565b5116146104d3575b8083039283116103a8576104688361025e565b92610476604051948561023c565b808452610485601f199161025e565b0136602085013760005b83518110156104cb57808201908183116103a857866104b16104c693866103be565b511660001a6104c082876103be565b53610399565b61048f565b509193505050565b600181018091111561045557634e487b7160e01b600052601160045260246000fd5b60001981018181116103a857600160fd1b906001600160f81b03199061051b90856103be565b5116036105325780156103a857600019018061042d565b915038610432565b50909192610429565b8051156103cf5760200190565b8051600110156103cf5760400190565b8051600210156103cf5760600190565b8051600310156103cf5760800190565b8051600410156103cf5760a00190565b9092919261059d8161025e565b916105ab604051938461023c565b8294828452828201116102c15760206105c59301906102ed565b565b6020818303126102c15780519067ffffffffffffffff82116102c157019080601f830112156102c15781516105fe92602001610590565b90565b602080820190808352835180925260408301928160408460051b8301019501936000915b8483106106355750505050505090565b9091929394958480610653600193603f198682030187528a51610310565b9801930193019194939290610625565b9293909161067b6106756000926103e5565b956103e5565b9460409182519461068b8661020a565b60018652815b6020808210156106ac57906060602092828a01015201610691565b5050919396959092958651946106c18661020a565b60038652602095621c1dd960ea1b878201526106dc88610543565b526106e687610543565b50875190638916046760e01b928383528261070560049a8b8301610601565b03948784737109709ecfa91a80626ff3989d68f67f5b1dd12d9781838a5af1938415610ae6578894610aca575b508a519667ffffffffffffffff9160c089018381118a821017610ab7578d52600589528a8a5b60a08110610aa75750508c5161076d8161020a565b8c8152630c4c2e6d60e31b8c8201526107858a610543565b5261078f89610543565b508c516107cb8c82895197828b01986107ab818585018c6102ed565b82016107bf825180938680850191016102ed565b0103808452018261023c565b6107d48a610550565b526107de89610550565b506107e889610560565b526107f288610560565b508b519063348051d760e11b82528b82015288816024818a5afa918215610a9d57918c918b969594938b92610a24575b505093899896949361088c9361085f6021946108b39d9b99976108448c610570565b5261084e8b610570565b5051968794519283918601906102ed565b8201602f60f81b8d82015261087d8d835193849187850191016102ed565b0103600181018452018261023c565b61089584610580565b5261089f83610580565b5083895180978195829483528b8301610601565b03925af1918215610a185781926109f4575b50808086516108d38161020a565b600c81526b2932ba3ab937102230ba309d60a11b8682015287518280826109118a82019563104c13eb60e21b87528b60248401526044830190610310565b0392610925601f199485810183528261023c565b516a636f6e736f6c652e6c6f6794855afa50885161096a888201926305f3bfab60e11b84528960248401528261095e604482018b610310565b0390810183528261023c565b51915afa50508051908201516bffffffffffffffffffffffff19918282169190601481106109df575b505060601c93905083156109a75750505090565b5162461bcd60e51b8152918201526014602482015273139bc818dbdb9d1c9858dd0819195c1b1bde595960621b604482015260649150fd5b8391925060140360031b1b1616803880610993565b610a119192503d8084833e610a09818361023c565b8101906105c7565b90386108c5565b508451903d90823e3d90fd5b92509293949550503d808a843e610a3b818461023c565b8201918a81840312610a99578051918211610a99570181601f82011215610a955788979593946108b39997958b9461085f8f610a8161088c97878a602199519101610590565b94989a9c5094505093819597999b50610822565b8880fd5b8980fd5b8c513d8b823e3d90fd5b606082828d010152018b90610758565b634e487b7160e01b8b5260418d5260248bfd5b610adf9194503d808a833e610a09818361023c565b9238610732565b8b513d8a823e3d90fdfea264697066735822122092b0e0457a352dde9fa7191b182834546f3f3200a444fe733273b8ee1dc4fa6b64736f6c63430008130033",
        "nonce": "0x60",
        "accessList": []
      },
      "additionalContracts": [],
      "isFixedGasLimit": false
    },
    {
      "hash": "0x93e0953cecc1791c3d74401444aa7d6f88a7fce25d55ff102f5329f03fc58e1e",
      "transactionType": "CALL",
      "contractName": "VRFCoordinatorV2",
      "contractAddress": "0x8103B0A8A00be2DDC778e6e7eaa21791Cd364625",
      "function": "createSubscription():(uint64)",
      "arguments": [],
      "transaction": {
        "type": "0x02",
        "from": "0xe73693d0e16e421270e3cb02ea5f377b75e93e44",
        "to": "0x8103b0a8a00be2ddc778e6e7eaa21791cd364625",
        "gas": "0x1558c",
        "value": "0x0",
        "data": "0xa21a23e4",
        "nonce": "0x61",
        "accessList": []
      },
      "additionalContracts": [],
      "isFixedGasLimit": false
    },
    {
      "hash": "0x3fd1654e387beb30f5492f2aeaf659ba2554a58af2dddedecfab7b189e5f7665",
      "transactionType": "CALL",
      "contractName": "LinkToken",
      "contractAddress": "0x779877A7B0D9E8603169DdbD7836e478b4624789",
      "function": "transferAndCall(address,uint256,bytes):(bool)",
      "arguments": [
        "0x8103B0A8A00be2DDC778e6e7eaa21791Cd364625",
        "3000000000000000000",
        "0x0000000000000000000000000000000000000000000000000000000000000e8a"
      ],
      "transaction": {
        "type": "0x02",
        "from": "0xe73693d0e16e421270e3cb02ea5f377b75e93e44",
        "to": "0x779877a7b0d9e8603169ddbd7836e478b4624789",
        "gas": "0x1b43f",
        "value": "0x0",
        "data": "0x4000aea00000000000000000000000008103b0a8a00be2ddc778e6e7eaa21791cd36462500000000000000000000000000000000000000000000000029a2241af62c0000000000000000000000000000000000000000000000000000000000000000006000000000000000000000000000000000000000000000000000000000000000200000000000000000000000000000000000000000000000000000000000000e8a",
        "nonce": "0x62",
        "accessList": []
      },
      "additionalContracts": [],
      "isFixedGasLimit": false
    },
    {
      "hash": "0x31d1c85b6d326f2381d26ac0a8c38a1a8df595507f7325451afc3eae09b1099a",
      "transactionType": "CREATE",
      "contractName": "Raffle",
      "contractAddress": "0xbB034e73C1EB3AEC9c0FCCF28b9Fa66B0279FE7d",
      "function": null,
      "arguments": [
        "10000000000000000",
        "30",
        "0x8103B0A8A00be2DDC778e6e7eaa21791Cd364625",
        "0x474e34a077df58807dbe9c96d3c009b23b3c6d0cce433e59bbf5b34f823bc56c",
        "3722",
        "500000"
      ],
      "transaction": {
        "type": "0x02",
        "from": "0xe73693d0e16e421270e3cb02ea5f377b75e93e44",
        "gas": "0xc5566",
        "value": "0x0",
        "data": "0x6101603461010b576001600160401b03601f610aef38819003918201601f1916840191838311858410176101105780859260c09460405283398101031261010b57815160208301516040840151916001600160a01b038316919082840361010b576060860151956080810151958616860361010b5760a001519363ffffffff8516850361010b5760805260a05260e0524260015560c05261010092835261012091825260ff60a01b1960025416600255610140908152604051916109c893846101278539608051846106cc015260a05184818160e10152610563015260c0518461044c015260e05184818161019e0152610330015251836103bd015251826103e5015251816104130152f35b600080fd5b634e487b7160e01b600052604160045260246000fdfe608060408181526004918236101561001657600080fd5b600090813560e01c9081630ea3df38146108a257508063115cbaf5146108605780631fe543e31461064a5780632cfcc539146105545780634585e33b146102ce578063473f1ddc146102a55780636e04ff0d14610127578063c1c244e814610108578063ce147cf3146100c95763e55ae4e81461009257600080fd5b346100c65760203660031901126100c657506100b060209235610948565b905491519160018060a01b039160031b1c168152f35b80fd5b509034610104578160031936011261010457602090517f00000000000000000000000000000000000000000000000000000000000000008152f35b5080fd5b5090346101045781600319360112610104576020906001549051908152f35b50346100c65760208060031936011261010457833567ffffffffffffffff81116102a157366023820112156102a15780850135906101648261092c565b906101718651928361090a565b828252366024848301011161029d5791839181602487950184830137010152600154420342811161028a577f000000000000000000000000000000000000000000000000000000000000000011159360ff60025460a01c16906002821015610277575047151583541515918661026e575b5085610266575b508461025e575b50929091805192610200846108ee565b600384526203078360ec1b85850152815194859315158452828185015284518093850152815b83811061024757505060608094508284010152601f80199101168101030190f35b808601820151878201606001528694508101610226565b9350386101f0565b9450386101e9565b159550386101e2565b634e487b7160e01b845260219052602483fd5b634e487b7160e01b835260118552602483fd5b8480fd5b8280fd5b50903461010457816003193601126101045760025490516001600160a01b039091168152602090f35b5091346102a1576020806003193601126105505767ffffffffffffffff823581811161054c573660238201121561054c5780840135828111610548573691016024011161029d57848451610321816108bc565b526001544203428111610535577f000000000000000000000000000000000000000000000000000000000000000011156002549060ff8260a01c169060028210156105225787549047151581610519575b81610511575b5080610508575b6203078360ec1b868951610392816108ee565b600381520152156104e557505060ff60a01b1916600160a01b1760025583516305d3b1d360e41b81527f0000000000000000000000000000000000000000000000000000000000000000938101939093527f0000000000000000000000000000000000000000000000000000000000000000166024830152600360448301527f000000000000000000000000000000000000000000000000000000000000000063ffffffff16606483015260016084830152808260a481877f00000000000000000000000000000000000000000000000000000000000000006001600160a01b03165af19283156104dc575083926104ae575b50507fcd6e45c8998311cab7e9d4385596cac867e20a0587194b954fa3a731c93ce78b8280a280f35b90809250813d83116104d5575b6104c5818361090a565b8101031261010457513880610485565b503d6104bb565b513d85823e3d90fd5b60649186918847905193632c2193d560e11b855284015260248301526044820152fd5b5080151561037f565b905038610378565b83159150610372565b634e487b7160e01b885260218652602488fd5b634e487b7160e01b865260118452602486fd5b8680fd5b8580fd5b8380fd5b509081600319360112610104577f0000000000000000000000000000000000000000000000000000000000000000341061063b5760ff60025460a01c166002811015610628576106195750805468010000000000000000811015610606578060016105c192018355610948565b81546001600160a01b0360039290921b91821b1916339182901b179091557f819fbd717c9d0b421352c5116a644ca68ba176960c33f406f08d98a27370ca278280a280f35b506041602492634e487b7160e01b835252fd5b51636eac21ed60e01b81529050fd5b634e487b7160e01b835260218452602483fd5b5163640ec59960e11b81529050fd5b509190346102a157806003193601126102a15767ffffffffffffffff6024803582811161054c573660238201121561054c578085013592831161084e578260051b84519160209461069d8684018561090a565b83528483018481938301019136831161084a5785879101915b83831061083a57506001600160a01b03949250507f0000000000000000000000000000000000000000000000000000000000000000841690503381900361081d5750511561080b575186549283156107fa57509061071683889306610948565b90549060031b1c1691826affffffffffffffffffffff60a81b6002541617600255818551610743816108bc565b528180557f290decd9548b62a8d60345a988386fc84ba6bc95484008f6362f93160ef3e563908101905b8181106107ed5750508080809381805242600155807f5b690ec4a06fe979403046eaeea5b3ce38524683c3001f662c8b5a829632f7df8380a247905af1903d156107e757843d916107bd8361092c565b926107ca8651948561090a565b83523d92013e5b156107da578280f35b5163a1d04b3960e01b8152fd5b506107d1565b918255869160010161076d565b634e487b7160e01b88526012875287fd5b634e487b7160e01b8752603286528287fd5b865163073e64fd60e21b815233818a015280860191909152604490fd5b82358152918101918791016106b6565b8980fd5b50634e487b7160e01b85526041845284fd5b50903461010457816003193601126101045760ff60025460a01c16905191600282101561088f57602083838152f35b634e487b7160e01b815260218452602490fd5b905034610104578160031936011261010457602091548152f35b6020810190811067ffffffffffffffff8211176108d857604052565b634e487b7160e01b600052604160045260246000fd5b6040810190811067ffffffffffffffff8211176108d857604052565b90601f8019910116810190811067ffffffffffffffff8211176108d857604052565b67ffffffffffffffff81116108d857601f01601f191660200190565b90600091825481101561097e578280527f290decd9548b62a8d60345a988386fc84ba6bc95484008f6362f93160ef3e563019190565b634e487b7160e01b83526032600452602483fdfea264697066735822122003ef5592f996dd5d93bd3daf3f7c1173595ca0843973e7ac2d5a65a7844c1ea164736f6c63430008130033000000000000000000000000000000000000000000000000002386f26fc10000000000000000000000000000000000000000000000000000000000000000001e0000000000000000000000008103b0a8a00be2ddc778e6e7eaa21791cd364625474e34a077df58807dbe9c96d3c009b23b3c6d0cce433e59bbf5b34f823bc56c0000000000000000000000000000000000000000000000000000000000000e8a000000000000000000000000000000000000000000000000000000000007a120",
        "nonce": "0x63",
        "accessList": []
      },
      "additionalContracts": [],
      "isFixedGasLimit": false
    },
    {
      "hash": "0x2452bac330aad3e4ac8ed2a1f0ea3d850f4762439a1e2a6681d7f3f2455ccec6",
      "transactionType": "CALL",
      "contractName": "VRFCoordinatorV2",
      "contractAddress": "0x8103B0A8A00be2DDC778e6e7eaa21791Cd364625",
      "function": "addConsumer(uint64,address)",
      "arguments": [
        "3722",
        "0xbB034e73C1EB3AEC9c0FCCF28b9Fa66B0279FE7d"
      ],
      "transaction": {
        "type": "0x02",
        "from": "0xe73693d0e16e421270e3cb02ea5f377b75e93e44",
        "to": "0x8103b0a8a00be2ddc778e6e7eaa21791cd364625",
        "gas": "0x21eb0",
        "value": "0x0",
        "data": "0x7341c10c0000000000000000000000000000000000000000000000000000000000000e8a000000000000000000000000bb034e73c1eb3aec9c0fccf28b9fa66b0279fe7d",
        "nonce": "0x64",
        "accessList": []
      },
      "additionalContracts": [],
      "isFixedGasLimit": false
    }
  ],
  "receipts": [
    {
      "transactionHash": "0x3df42f5c75d4d84a8e9dcbfd27b6b7f10832ccf7c3c6654854d7c2904e912d87",
      "transactionIndex": "0x3",
      "blockHash": "0x13dee17d82e1a6bac8168b3ea4f14343f6a77600d75a9692f10b8631dc6ac6f2",
      "blockNumber": "0x3bb4ed",
      "from": "0xe73693D0e16e421270e3CB02Ea5f377b75E93e44",
      "to": null,
      "cumulativeGasUsed": "0x37592c",
      "gasUsed": "0xa38ae",
      "contractAddress": "0xA5Be4E17E5F32b9bDB87999285DBa8e172d918Fe",
      "logs": [],
      "status": "0x1",
      "logsBloom": "0x00000000000000000000000000000000000000000000000000000000000000000000000000000000000000000000000000000000000000000000000000000000000000000000000000000000000000000000000000000000000000000000000000000000000000000000000000000000000000000000000000000000000000000000000000000000000000000000000000000000000000000000000000000000000000000000000000000000000000000000000000000000000000000000000000000000000000000000000000000000000000000000000000000000000000000000000000000000000000000000000000000000000000000000000000000000",
      "type": "0x2",
      "effectiveGasPrice": "0xb2d05e14"
    },
    {
      "transactionHash": "0x93e0953cecc1791c3d74401444aa7d6f88a7fce25d55ff102f5329f03fc58e1e",
      "transactionIndex": "0x4",
      "blockHash": "0x13dee17d82e1a6bac8168b3ea4f14343f6a77600d75a9692f10b8631dc6ac6f2",
      "blockNumber": "0x3bb4ed",
      "from": "0xe73693D0e16e421270e3CB02Ea5f377b75E93e44",
      "to": "0x8103B0A8A00be2DDC778e6e7eaa21791Cd364625",
      "cumulativeGasUsed": "0x3842b6",
      "gasUsed": "0xe98a",
      "contractAddress": null,
      "logs": [
        {
          "address": "0x8103B0A8A00be2DDC778e6e7eaa21791Cd364625",
          "topics": [
            "0x464722b4166576d3dcbba877b999bc35cf911f4eaf434b7eba68fa113951d0bf",
            "0x0000000000000000000000000000000000000000000000000000000000000e8a"
          ],
          "data": "0x000000000000000000000000e73693d0e16e421270e3cb02ea5f377b75e93e44",
          "blockHash": "0x13dee17d82e1a6bac8168b3ea4f14343f6a77600d75a9692f10b8631dc6ac6f2",
          "blockNumber": "0x3bb4ed",
          "transactionHash": "0x93e0953cecc1791c3d74401444aa7d6f88a7fce25d55ff102f5329f03fc58e1e",
          "transactionIndex": "0x4",
          "logIndex": "0xc",
          "removed": false
        }
      ],
      "status": "0x1",
      "logsBloom": "0x0000000000000000000001000000000000000000000000000000000000000000010000000000000000000000000000000000000000000000000000000000000000000000000000000000000000000000000000000000000000000000000000000400000000000000000000000000000000800000000000000000000000000000002000000c000020000000000000000000000000000000000000000000000000000000000000000000000000000000000000000000000000000000000000000000000000000000200000000000000000000000000000000000000000000000000000000000000000000000000000000000000000000000000000000000000000",
      "type": "0x2",
      "effectiveGasPrice": "0xb2d05e14"
    },
    {
      "transactionHash": "0x3fd1654e387beb30f5492f2aeaf659ba2554a58af2dddedecfab7b189e5f7665",
      "transactionIndex": "0x5",
      "blockHash": "0x13dee17d82e1a6bac8168b3ea4f14343f6a77600d75a9692f10b8631dc6ac6f2",
      "blockNumber": "0x3bb4ed",
      "from": "0xe73693D0e16e421270e3CB02Ea5f377b75E93e44",
      "to": "0x779877A7B0D9E8603169DdbD7836e478b4624789",
      "cumulativeGasUsed": "0x396d00",
      "gasUsed": "0x12a4a",
      "contractAddress": null,
      "logs": [
        {
          "address": "0x779877A7B0D9E8603169DdbD7836e478b4624789",
          "topics": [
            "0xddf252ad1be2c89b69c2b068fc378daa952ba7f163c4a11628f55a4df523b3ef",
            "0x000000000000000000000000e73693d0e16e421270e3cb02ea5f377b75e93e44",
            "0x0000000000000000000000008103b0a8a00be2ddc778e6e7eaa21791cd364625"
          ],
          "data": "0x00000000000000000000000000000000000000000000000029a2241af62c0000",
          "blockHash": "0x13dee17d82e1a6bac8168b3ea4f14343f6a77600d75a9692f10b8631dc6ac6f2",
          "blockNumber": "0x3bb4ed",
          "transactionHash": "0x3fd1654e387beb30f5492f2aeaf659ba2554a58af2dddedecfab7b189e5f7665",
          "transactionIndex": "0x5",
          "logIndex": "0xd",
          "removed": false
        },
        {
          "address": "0x779877A7B0D9E8603169DdbD7836e478b4624789",
          "topics": [
            "0xe19260aff97b920c7df27010903aeb9c8d2be5d310a2c67824cf3f15396e4c16",
            "0x000000000000000000000000e73693d0e16e421270e3cb02ea5f377b75e93e44",
            "0x0000000000000000000000008103b0a8a00be2ddc778e6e7eaa21791cd364625"
          ],
          "data": "0x00000000000000000000000000000000000000000000000029a2241af62c0000000000000000000000000000000000000000000000000000000000000000004000000000000000000000000000000000000000000000000000000000000000200000000000000000000000000000000000000000000000000000000000000e8a",
          "blockHash": "0x13dee17d82e1a6bac8168b3ea4f14343f6a77600d75a9692f10b8631dc6ac6f2",
          "blockNumber": "0x3bb4ed",
          "transactionHash": "0x3fd1654e387beb30f5492f2aeaf659ba2554a58af2dddedecfab7b189e5f7665",
          "transactionIndex": "0x5",
          "logIndex": "0xe",
          "removed": false
        },
        {
          "address": "0x8103B0A8A00be2DDC778e6e7eaa21791Cd364625",
          "topics": [
            "0xd39ec07f4e209f627a4c427971473820dc129761ba28de8906bd56f57101d4f8",
            "0x0000000000000000000000000000000000000000000000000000000000000e8a"
          ],
          "data": "0x000000000000000000000000000000000000000000000000000000000000000000000000000000000000000000000000000000000000000029a2241af62c0000",
          "blockHash": "0x13dee17d82e1a6bac8168b3ea4f14343f6a77600d75a9692f10b8631dc6ac6f2",
          "blockNumber": "0x3bb4ed",
          "transactionHash": "0x3fd1654e387beb30f5492f2aeaf659ba2554a58af2dddedecfab7b189e5f7665",
          "transactionIndex": "0x5",
          "logIndex": "0xf",
          "removed": false
        }
      ],
      "status": "0x1",
      "logsBloom": "0x0000001400000000000000000000000000000000000100020000000002000000000000000000800000000000000000000000000000000000000000000000000000000000000001000000000800000000000000000000000000002000000000000400000000000000000000000000000000800000400000000000001000000000002000000c000020000000000000800010000020000040000000000000000000000000000000000000000000000000000000000000000000000400000000000000000002000000000000000000000000000000000000000100000000000000000000000000000000000000000000000000000000000000000000000000000000",
      "type": "0x2",
      "effectiveGasPrice": "0xb2d05e14"
    },
    {
      "transactionHash": "0x31d1c85b6d326f2381d26ac0a8c38a1a8df595507f7325451afc3eae09b1099a",
      "transactionIndex": "0x6",
      "blockHash": "0x13dee17d82e1a6bac8168b3ea4f14343f6a77600d75a9692f10b8631dc6ac6f2",
      "blockNumber": "0x3bb4ed",
      "from": "0xe73693D0e16e421270e3CB02Ea5f377b75E93e44",
      "to": null,
      "cumulativeGasUsed": "0x42ea81",
      "gasUsed": "0x97d81",
      "contractAddress": "0xbB034e73C1EB3AEC9c0FCCF28b9Fa66B0279FE7d",
      "logs": [],
      "status": "0x1",
      "logsBloom": "0x00000000000000000000000000000000000000000000000000000000000000000000000000000000000000000000000000000000000000000000000000000000000000000000000000000000000000000000000000000000000000000000000000000000000000000000000000000000000000000000000000000000000000000000000000000000000000000000000000000000000000000000000000000000000000000000000000000000000000000000000000000000000000000000000000000000000000000000000000000000000000000000000000000000000000000000000000000000000000000000000000000000000000000000000000000000",
      "type": "0x2",
      "effectiveGasPrice": "0xb2d05e14"
    },
    {
      "transactionHash": "0x2452bac330aad3e4ac8ed2a1f0ea3d850f4762439a1e2a6681d7f3f2455ccec6",
      "transactionIndex": "0x7",
      "blockHash": "0x13dee17d82e1a6bac8168b3ea4f14343f6a77600d75a9692f10b8631dc6ac6f2",
      "blockNumber": "0x3bb4ed",
      "from": "0xe73693D0e16e421270e3CB02Ea5f377b75E93e44",
      "to": "0x8103B0A8A00be2DDC778e6e7eaa21791Cd364625",
      "cumulativeGasUsed": "0x445d93",
      "gasUsed": "0x17312",
      "contractAddress": null,
      "logs": [
        {
          "address": "0x8103B0A8A00be2DDC778e6e7eaa21791Cd364625",
          "topics": [
            "0x43dc749a04ac8fb825cbd514f7c0e13f13bc6f2ee66043b76629d51776cff8e0",
            "0x0000000000000000000000000000000000000000000000000000000000000e8a"
          ],
          "data": "0x000000000000000000000000bb034e73c1eb3aec9c0fccf28b9fa66b0279fe7d",
          "blockHash": "0x13dee17d82e1a6bac8168b3ea4f14343f6a77600d75a9692f10b8631dc6ac6f2",
          "blockNumber": "0x3bb4ed",
          "transactionHash": "0x2452bac330aad3e4ac8ed2a1f0ea3d850f4762439a1e2a6681d7f3f2455ccec6",
          "transactionIndex": "0x7",
          "logIndex": "0x10",
          "removed": false
        }
      ],
      "status": "0x1",
      "logsBloom": "0x0000000000000000000000000000000000000000000000000000000000000000000000000000000000000000000000000000000000000000000000000000000000000000000000000000000000000000000000000000000000000000000000000400000000008000000000000000000000800000000000000000000000000000002000000c000020000000000000000000000000000000000000000000000000000000000000000000000080000000000000000000000000000000000000000000000000000000000000000000000000000000000000000000020000000000000000000000000000000000000000000000000000000000000000000000000000",
      "type": "0x2",
      "effectiveGasPrice": "0xb2d05e14"
    }
  ],
  "libraries": [
    "lib/foundry-devops/src/DevOpsTools.sol:DevOpsTools:0xa5be4e17e5f32b9bdb87999285dba8e172d918fe"
  ],
  "pending": [],
  "returns": {
    "1": {
      "internal_type": "contract HelperConfig",
      "value": "0xC7f2Cf4845C6db0e1a1e91ED41Bcd0FcC1b0E141"
    },
    "0": {
      "internal_type": "contract Raffle",
      "value": "0xbB034e73C1EB3AEC9c0FCCF28b9Fa66B0279FE7d"
    }
  },
  "timestamp": 1689631962,
  "chain": 11155111,
  "multi": false,
  "commit": "df80a9f"
}